:100000000C9460000C9488000C9488000C94880078
:100010000C9488000C9488000C9488000C94FA09C5
:100020000C9488000C9488000C9488000C94880030
:100030000C9488000C9488000C9488000C94880020
:100040000C948C050C9488000C94FA070C942C08E2
:100050000C9488000C9488000C9488000C94880000
:100060000C9488000C948800000000080002010035
:100070000003040700000000000000000102040863
:100080001020408001020408102001020408102002
:10009000040404040404040402020202020203032E
:1000A0000303030300000000250028002B000000CC
:1000B0000000240027002A0002006D015C0887016F
:1000C00011241FBECFEFD8E0DEBFCDBF11E0A0E00E
:1000D000B1E0EEEEFEE102C005900D92A03AB1074C
:1000E000D9F722E0A0EAB1E001C01D92A23BB2071D
:1000F000E1F710E0CEEBD0E004C02297FE010E94B1
:100100002E0DCA3BD107C9F70E94A0080C946A0FB4
:100110000C940000CF93DF9300D000D000D0CDB777
:10012000DEB726E040E855E260E070E089E092E06A
:100130000E9498078FEA91E00E946F026BE071E0E5
:10014000CE0101960E94C40ABE016F5F7F4F8FEA05
:1001500091E00E94E002CE0101960E94560A8FEAC9
:1001600091E00E94F90226960FB6F894DEBF0FBE0A
:10017000CDBFDF91CF910895CF93DF93EC018A300B
:1001800091052CF460E389E092E00E94FD084AE0CA
:1001900050E0BE0189E092E0DF91CF910C94BD095F
:1001A0000E94FB046093A0017093A1018093A201BF
:1001B0009093A3010E94B8040E94BC006AE389E006
:1001C00092E00E94FD086091A0017091A1018091D0
:1001D000A2019091A3010E94BE040E94BC006AE3A8
:1001E00089E092E00E94FD086091A0017091A10158
:1001F0008091A2019091A3010E94C4040C94BC00C0
:100200000F931F930E94D6050091AB011091AC0192
:100210002091AD013091AE01601B710B820B930BED
:100220006838734181059105C0F00E94D60560933E
:10023000AB017093AC018093AD019093AE0163E18B
:1002400071E089E092E00E94FB080E94D00089E002
:1002500092E01F910F910C9404091F910F91089542
:10026000CF93DF9300D000D000D0CDB7DEB78FEAB8
:1002700091E00E942903811104C08FEA91E00E945D
:10028000F9020E9400018091A4018823E9F06AE24A
:1002900071E0CE0101960E94C40A65EA71E0CE01C8
:1002A00001960E94480BBC0189E092E00E94080977
:1002B000CE0101960E94560A61E971E085EA91E05B
:1002C0000E94F10A1092A40126960FB6F894DEBFA0
:1002D0000FBECDBFDF91CF91089520E030E040E424
:1002E00051E46DE070E08FEA91E00E94AF030E945C
:1002F000D6056093AB017093AC018093AD019093F0
:10030000AE0161E971E085EA91E00C94C40A85EAE6
:1003100091E00E94560A8FE591E09093B00180939E
:10032000AF0187EB91E00C94560ACF93DF93D1E0B5
:1003300089E092E00E94B506892B79F089E092E08D
:100340000E94CE06C82F682F85EA91E00E94350BE7
:10035000CA3071F7D093A401EBCFDF91CF9108950C
:10036000089508950895089561E0FC0182810C9438
:100370007F0660E0FC0182810C947F060F931F933F
:10038000CF93DF93DC0128E030E000E810E080E06C
:1003900090E051E0E02FE42309F450E01123E1F074
:1003A000FC01EE0FFF1FEE0FFF1FE60FF71F552397
:1003B00029F01696CD91DC91179704C01496CD9133
:1003C000DC911597D183C0831496CD91DC9115975C
:1003D000D383C2830196512F06952150310911F024
:1003E000152FD7CFDF91CF911F910F910895CF9304
:1003F000DF93EC018FE9860F8A3140F4E62FFF2767
:10040000E7FDF095EC52FF4F408143C080ED860F31
:100410008A3028F0EFE4F1E080E090E02EC0E62F93
:10042000FF27E7FDF0959F0120533109A1E0263019
:1004300031051CF0A0E0255031096C817D81FE0161
:1004400080E090E0B0E041E050E08217930714F0C4
:1004500040E050E04A175B0719F44C815D8102C00F
:100460004E815F8157874687718B608B01963496EA
:100470008530910541F719C001962081222381F032
:1004800032962613F9CFFC01EE0FFF1FE15BFE4F02
:100490004181BE01625F7F4FCE010E94BE0105C057
:1004A00021E030E081E090E002C020E030E0FC019B
:1004B000EE0FFF1FDF011696AA0FBB1FAC0FBD1F6B
:1004C0008E819F818D939C933796EE0FFF1FEC0FCB
:1004D000FD1F11821082C901DF91CF91089561E063
:1004E000FC0182810C944606CF92DF92EF92FF923C
:1004F000CF93DF93EC016A017B0120E030E040E81C
:100500005FE3C701B6010E946D0B87FD15C020E0B7
:1005100030E048E452E4C701B6010E947F0C9B0121
:10052000AC0160E070E68AE697E40E94710B0E94DD
:10053000D90B362F272F02C030EB24E0832F922FC8
:100540001816190614F081E090E09D838C839C01BD
:10055000220F331F280F391F3F832E83DF91CF9146
:10056000FF90EF90DF90CF9008950F931F93CF935C
:10057000DF9300D000D0CDB7DEB78C018FE591E0DE
:10058000F801918380837383628361E971E0C8011C
:10059000089629833A834B835C830E94C40A29818D
:1005A0003A814B815C81BA01A901C8010F900F907B
:1005B0000F900F90DF91CF911F910F910C947402C7
:1005C000CF93DF93EC0108960E94DA0A8C859D8513
:1005D0009FA78EA788A980FD09C0E881F9810280C4
:1005E000F381E02DCE01DF91CF910994DF91CF917E
:1005F0000895CF93DF93EC011FA61EA68C859D85E1
:10060000892B21F160E070E0CE0108960E945B0B1F
:10061000FC016081CE010E94F70199AB88ABE881B3
:10062000F9810480F581E02DCE01099588A980FD2E
:1006300007C0E881F9810190F081E02DCE01099594
:100640000E94D6056AAB7BAB8CAB9DABDF91CF91A3
:100650000895CF92DF92EF92FF92CF93DF93EC0158
:100660002EA53FA58C859D852817390708F06DC0FC
:100670000E94D6056B017C018AA99BA9ACA9BDA9E2
:10068000C81AD90AEA0AFB0AE8A9F9A9DF011796EC
:10069000AA0FBB1FAC0FBD1F8D919C91AA2797FD80
:1006A000A095BA2FC816D906EA06FB0608F44FC073
:1006B000CF01019699AB88AB3896EE0FFF1FEC0F78
:1006C000FD1F80819181892B29F56EA57FA56F5F24
:1006D0007F4F7FA76EA78C859D856817790778F077
:1006E000E881F9810280F381E02DCE010995E8814E
:1006F000F9810680F781E02DCE01099526C0CE0153
:1007000008960E945B0BFC016081CE010E94F701FC
:1007100099AB88AB4AA95BA96CA97DA94C0D5D1D5D
:100720006E1D7F1D4AAB5BAB6CAB7DAB88A9E881CE
:10073000F98180FD04C00190F081E02D03C00280AA
:10074000F381E02DCE01099502C080E001C081E077
:10075000DF91CF91FF90EF90DF90CF900895CF93EE
:10076000DF93EC010E94B5028BE691E099838883C8
:10077000DF91CF9108956F927F928F929F92AF9267
:10078000BF92CF92DF92EF92FF920F931F93CF937E
:10079000DF93EA012CE3C22ED12CE12CF12CA7012E
:1007A00096010E94F60C6883CA01B901A70196015F
:1007B0000E94F60C6983CA01B90128E130E040E0EB
:1007C00050E00E94F60C49015A016A83CA01B9013E
:1007D0006C5F7F4F8F4F9F4F27E030E040E050E04D
:1007E0000E94F60C6F5F6B8300E010E0980140E020
:1007F00054E6652E712C60E9C62EDD24D394E42FD7
:10080000F0E0EE54F84F7F0183E0E822FF24E1148A
:10081000F10489F4CF01B3010E94E20C892B29F085
:100820008EE691E0A0E0B0E00AC0CF01B6010E94E0
:10083000E20C892BA9F38DE691E0A0E0B0E0080F6F
:10084000191F2A1F3B1FD901C801AA27BB278816D9
:100850009906AA06BB0610F04F5FD1CF4E83E11474
:10086000F10499F4CF0164E670E00E94E20C892B58
:1008700029F08EE691E0A0E0B0E00BC0CF0160E986
:1008800071E00E94E20C892BA1F38DE691E0A0E0DB
:10089000B0E0081B190B2A0B3B0B801A910AA20A25
:1008A000B30ACF0164E670E00E94E20C9C01CF0124
:1008B00060E971E00E94E20CE3E7F1E0A0E0A13022
:1008C00059F4E114F10451F42115310511F04DE111
:1008D00006C00097E1F302C0408101C04CE150E046
:1008E00060E070E084169506A606B70640F0841A0C
:1008F000950AA60AB70AAF5F3196AC3001F7AF5F31
:10090000AD8383948C82DF91CF911F910F91FF90E3
:10091000EF90DF90CF90BF90AF909F908F907F909F
:100920006F900895CF92DF92EF92FF926B017C015E
:100930008091F5019091F601A091F701B091F80135
:10094000C816D906EA06FB0671F049EF51E0C70167
:10095000B6010E94BB03C092F501D092F601E0926D
:10096000F701F092F801FF90EF90DF90CF9008959B
:100970000E9492048091FB0190E008950E949204ED
:100980008091FA0190E008950E9492048091F9010B
:1009900090E008950F931F936093F1017093F2011B
:1009A0008093F3019093F4010091060110910701E7
:1009B0002091080130910901060F171F281F391FC8
:1009C0000093E9011093EA012093EB013093EC01CD
:1009D00082E090E09093E8018093E7010E94D605C1
:1009E0006093ED017093EE018093EF019093F0011D
:1009F0001F910F910895CF92DF92EF92FF920F9384
:100A00001F930E94D605C090ED01D090EE01E090BA
:100A1000EF01F090F0016C197D098E099F0900919A
:100A2000F1011091F2012091F3013091F401683E3F
:100A3000734081059105D8F00F5F1F4F2F4F3F4F37
:100A40000093F1011093F2012093F3013093F4012C
:100A500048EEC40E43E0D41EE11CF11CC092ED012F
:100A6000D092EE01E092EF01F092F001CACF8091B6
:100A7000E9019091EA01A091EB01B091EC01081716
:100A800019072A073B07C8F1E091E501F091E6015B
:100A9000309799F10995611571058105910519F056
:100AA0000E94CA042AC08091060190910701A0917A
:100AB0000801B09109014091F1015091F20160915A
:100AC000F3017091F401840F951FA61FB71F809347
:100AD000E9019093EA01A093EB01B093EC0181E06E
:100AE00090E02091E7013091E801232B11F480E0A0
:100AF00090E09093E8018093E7016091F10170919B
:100B0000F2018091F3019091F4011F910F91FF90F8
:100B1000EF90DF90CF9008951F920F920FB60F9233
:100B200011242F933F938F939F93AF93BF93809103
:100B3000010290910202A0910302B091040230914F
:100B4000000223E0230F2D3720F40196A11DB11DD3
:100B500005C026E8230F0296A11DB11D20930002B7
:100B60008093010290930202A0930302B0930402C7
:100B70008091050290910602A0910702B0910802AF
:100B80000196A11DB11D8093050290930602A093CA
:100B90000702B0930802BF91AF919F918F913F914F
:100BA0002F910F900FBE0F901F9018952FB7F894AC
:100BB00060910102709102028091030290910402FF
:100BC0002FBF0895789484B5826084BD84B5816018
:100BD00084BD85B5826085BD85B5816085BDEEE645
:100BE000F0E0808181608083E1E8F0E01082808124
:100BF00082608083808181608083E0E8F0E0808192
:100C000081608083E1EBF0E0808184608083E0EBB1
:100C1000F0E0808181608083EAE7F0E08081846099
:100C200080838081826080838081816080838081F5
:100C3000806880831092C1000895833081F028F489
:100C4000813099F08230A1F008958730A9F0883082
:100C5000B9F08430D1F4809180008F7D03C0809101
:100C600080008F7780938000089584B58F7702C0CD
:100C700084B58F7D84BD08958091B0008F7703C0C7
:100C80008091B0008F7D8093B0000895CF93DF9363
:100C900090E0FC01E458FF4F2491FC01E057FF4F26
:100CA0008491882349F190E0880F991FFC01E25557
:100CB000FF4FA591B4918C559F4FFC01C591D491E4
:100CC0009FB7611108C0F8948C91209582238C9372
:100CD000888182230AC0623051F4F8948C91322FBB
:100CE000309583238C938881822B888304C0F89469
:100CF0008C91822B8C939FBFDF91CF9108950F939E
:100D00001F93CF93DF931F92CDB7DEB7282F30E02C
:100D1000F901E859FF4F8491F901E458FF4F14910C
:100D2000F901E057FF4F04910023C9F0882321F017
:100D300069830E941D066981E02FF0E0EE0FFF1F1E
:100D4000EC55FF4FA591B4919FB7F8948C91611128
:100D500003C01095812301C0812B8C939FBF0F90FE
:100D6000DF91CF911F910F910895FC01818D228D0C
:100D700090E0805C9F4F821B91098F7399270895A3
:100D8000FC01918D828D981731F0828DE80FF11D55
:100D9000858D90E008958FEF9FEF0895FC01918D70
:100DA000828D981761F0828DDF01A80FB11D5D96CD
:100DB0008C91928D9F5F9F73928F90E008958FEF3B
:100DC0009FEF089582E598E0892B49F085E991E04D
:100DD000892B29F00E94520881110C9495010895E5
:100DE000FC01848DDF01A80FB11DA35ABF4F2C91C8
:100DF000848D90E001968F739927848FA689B78997
:100E00002C93A089B1898C9180648C93938D848D6F
:100E1000981306C00288F389E02D80818F7D80833E
:100E20000895CF93DF93EC01888D8823C9F0EA8978
:100E3000FB89808185FD05C0A889B9898C9186FDD3
:100E40000FC00FB607FCF5CF808185FFF2CFA889D0
:100E5000B9898C9185FFEDCFCE010E94F006E7CFD6
:100E6000DF91CF910895CF92DF92FF920F931F935E
:100E7000CF93DF931F92CDB7DEB76C0181E0D6012F
:100E800058968C9358975B969C915B975C968C9147
:100E90005C97981307C05096ED91FC915197808113
:100EA00085FD2EC0F601038D10E00F5F1F4F0F73FD
:100EB0001127F02EF601848DF81211C00FB607FC31
:100EC000F9CFD6015096ED91FC915197808185FF25
:100ED000F1CFC60169830E94F0066981EBCF838D53
:100EE000E80FF11DE35AFF4F6083D6015B960C9328
:100EF0005B975296ED91FC915397808180620CC074
:100F0000D6015696ED91FC91579760835096ED91DE
:100F1000FC91519780818064808381E090E00F9004
:100F2000DF91CF911F910F91FF90DF90CF900895A7
:100F3000BF92CF92DF92EF92FF92CF93DF93EC01BB
:100F40006A017B01B22EE889F98982E0808341152C
:100F500081EE580761057105A1F060E079E08DE34D
:100F600090E0A70196010E94F60C21503109410939
:100F700051095695479537952795211580E13807F2
:100F800098F0E889F989108260E874E88EE190E0D1
:100F9000A70196010E94F60C21503109410951091F
:100FA0005695479537952795EC85FD853083EE85D9
:100FB000FF852083188EEC89FD89B082EA89FB8940
:100FC000808180618083EA89FB8980818860808359
:100FD000EA89FB89808180688083EA89FB89808136
:100FE0008F7D8083DF91CF91FF90EF90DF90CF9046
:100FF000BF9008951F920F920FB60F9211242F9356
:101000008F939F93EF93FF93E0911902F0911A024F
:101010008081E0911F02F091200282FD12C0908138
:10102000809122028F5F8F7320912302821751F0EB
:10103000E0912202F0E0E75FFD4F958F809322025E
:1010400001C08081FF91EF919F918F912F910F901F
:101050000FBE0F901F9018951F920F920FB60F9210
:1010600011242F933F934F935F936F937F938F93AD
:101070009F93AF93BF93EF93FF9389E092E00E9419
:10108000F006FF91EF91BF91AF919F918F917F916A
:101090006F915F914F913F912F910F900FBE0F90E5
:1010A0001F90189589E092E00E94B50621E0892BF7
:1010B00009F420E0822F089510920C0210920B0286
:1010C00088EE93E0A0E0B0E080930D0290930E02D2
:1010D000A0930F02B093100283E891E090930A026C
:1010E0008093090285EC90E090931602809315029C
:1010F00084EC90E0909318028093170280EC90E0CB
:1011000090931A028093190281EC90E090931C0254
:1011100080931B0282EC90E090931E0280931D024C
:1011200086EC90E09093200280931F02109222029E
:10113000109223021092240210922502089508951D
:101140000E94E2050E949F080E948A00C2EED6E03B
:101150000E9430012097E1F30E94E206F9CFCF927E
:10116000DF92EF92FF920F931F93CF93DF936C0167
:101170007A01EB01E60EF71E00E010E0CE15DF0568
:1011800061F06991D601ED91FC910190F081E02D23
:10119000C6010995080F191FF1CFC801DF91CF9142
:1011A0001F910F91FF90EF90DF90CF900895611500
:1011B000710581F0DB010D900020E9F7AD01415090
:1011C0005109461B570BDC01ED91FC910280F38124
:1011D000E02D099480E090E00895DC01ED91FC9110
:1011E000DB0114964D915C9115976D917C91028075
:1011F000F381E02D09940C94D708DC01ED91FC916A
:101200000190F081E02D09946FE871E00C94D7080B
:101210000F931F93CF93DF93EC010E94ED088C0195
:10122000CE010E940409800F911FDF91CF911F9181
:101230000F9108958F929F92AF92BF92CF92DF92BB
:10124000EF92FF920F931F93CF93DF93CDB7DEB74B
:10125000A1970FB6F894DEBF0FBECDBF7C01C42EA0
:10126000E52FCB01D22E19A221E02D1510F02AE096
:10127000D22E8E010F5D1F4F8D2C912CA12CB12CE5
:101280006C2D7E2FA50194010E94F60C8C2DD29E10
:1012900080191124015011098A3014F4805D01C0B5
:1012A000895CF8018083211531054105510521F044
:1012B000C22EE32FCA01E4CFB801C7010E94D708AC
:1012C000A1960FB6F894DEBF0FBECDBFDF91CF91D0
:1012D0001F910F91FF90EF90DF90CF90BF90AF9054
:1012E0009F908F900895CF92DF92EF92FF920F938D
:1012F0001F93CF93DF93EC016A017B012115310528
:1013000079F4E881F9810190F081E02D642FDF917B
:10131000CF911F910F91FF90EF90DF90CF900994A4
:101320002A303105E9F477FF1AC06DE20E94FD080A
:101330008C0144275527BA014C195D096E097F09B4
:101340002AE0CE010E941A09800F911FDF91CF91F0
:101350001F910F91FF90EF90DF90CF9008952AE0BA
:10136000B701A601CE01DF91CF911F910F91FF90A0
:10137000EF90DF90CF900C941A099A01AB01662789
:1013800057FD6095762F0C947309813039F018F071
:10139000823051F0089510926E00089580916F0090
:1013A0008D7F80936F000895809170008D7F809372
:1013B000700081E08093B0008091B100887F8460EC
:1013C0008093B1001092B3000895CF93C82F8091FD
:1013D0000A018C1307C0E8EBF0E084919FEF909333
:1013E0000A0101C08FEF0E94C50960E08C2FCF91E8
:1013F0000C947F061F920F920FB60F9211242F9319
:101400003F934F935F936F937F938F939F93AF938C
:10141000BF93EF93FF938091A9029091AA02A091AC
:10142000AB02B091AC02892B8A2B8B2B51F190919E
:10143000A602E091A702F091A8028081892780830B
:101440008091A9029091AA02A091AB02B091AC0246
:10145000181619061A061B06C4F48091A902909169
:10146000AA02A091AB02B091AC020197A109B10907
:101470008093A9029093AA02A093AB02B093AC020E
:1014800004C080910A010E94E509FF91EF91BF918C
:10149000AF919F918F917F916F915F914F913F910C
:1014A0002F910F900FBE0F901F901895FC01808117
:1014B00091810C94CA0DCF93DF93EC0188819981BF
:1014C000009711F00E94CA0D198218821D821C8299
:1014D0001B821A82DF91CF9108950F931F93CF93B0
:1014E000DF93EC018B016F5F7F4F888199810E94B0
:1014F000590E009731F0998388831B830A8381E01A
:1015000001C080E0DF91CF911F910F910895CF939B
:10151000DF93EC0188819981892B29F08A819B8155
:101520008617970760F4CE010E946D0A882341F068
:101530008C819D81892B19F4E881F981108281E0E9
:10154000DF91CF910895EF92FF920F931F93CF9366
:10155000DF93EC017B018A01BA010E94870A8111A5
:1015600004C0CE010E945B0A07C01D830C83B70133
:10157000888199810E942C0FCE01DF91CF911F911C
:101580000F91FF90EF900895FC0111821082138259
:101590001282158214826115710559F0FB010190C8
:1015A0000020E9F7AF0141505109461B570B0C943D
:1015B000A30A0895CF93DF93EC01FB0186179707E9
:1015C00061F0608171816115710529F04481558157
:1015D0000E94A30A02C00E945B0ACE01DF91CF9154
:1015E0000895CF93DF93EC016115710561F0FB0164
:1015F00001900020E9F7AF0141505109461B570BFC
:101600000E94A30A02C00E945B0ACE01DF91CF9123
:101610000895EF92FF920F931F93CF93DF93EC0106
:101620007B010C811D816115710511F480E016C0EC
:101630004115510591F0040F151FB8010E94870A4A
:101640008823A1F3288139818C819D81B701820F84
:10165000931F0E942C0F1D830C8381E0DF91CF919B
:101660001F910F91FF90EF900895CF93DF9300D0DB
:10167000CDB7DEB769831A8241E050E0BE016F5FEB
:101680007F4F0E94090B0F900F90DF91CF9108952B
:10169000CF93DF93EC01FB0144815581608171811F
:1016A0000E94090B811103C0CE010E945B0ACE018A
:1016B000DF91CF910895FC018481958168177907A6
:1016C00020F480819181009729F41092AD028DEA77
:1016D00092E00895860F971F08959CD008F481E04A
:1016E00008950CD0D2C0CAD040F0C1D030F021F45F
:1016F0005F3F19F0B3C05111FCC0B6C0D7D098F30A
:101700009923C9F35523B1F3951B550BBB27AA2782
:1017100062177307840738F09F5F5F4F220F331FF4
:10172000441FAA1FA9F333D00E2E3AF0E0E830D0C0
:1017300091505040E695001CCAF729D0FE2F27D0C3
:10174000660F771F881FBB1F261737074807AB0791
:10175000B0E809F0BB0B802DBF01FF2793585F4F06
:101760002AF09E3F510568F079C0C3C05F3FECF39B
:10177000983EDCF3869577956795B795F7959F5FCB
:10178000C9F7880F911D9695879597F90895E1E01F
:10179000660F771F881FBB1F621773078407BA077E
:1017A00020F0621B730B840BBA0BEE1F88F7E095D9
:1017B000089504D06894B1119CC008957FD088F03A
:1017C0009F5790F0B92F9927B751A0F0D1F0660F2D
:1017D000771F881F991F1AF0BA95C9F712C0B13048
:1017E00081F086D0B1E0089583C0672F782F8827D5
:1017F000B85F39F0B93FCCF3869577956795B39587
:10180000D9F73EF490958095709561957F4F8F4FF5
:101810009F4F0895990F0008550FAA0BE0E8FEEFBF
:1018200016161706E807F907C0F012161306E407A4
:10183000F50798F0621B730B840B950B39F40A269D
:1018400061F0232B242B252B21F408950A2609F47B
:10185000A140A6958FEF811D811D089597F99F677F
:1018600080E870E060E008959FEF80EC0895002428
:101870000A941616170618060906089500240A94F5
:1018800012161306140605060895092E0394000C7B
:1018900011F4882352F0BB0F40F4BF2B11F460FF0A
:1018A00004C06F5F7F4F8F4F9F4F089557FD905833
:1018B000440F551F59F05F3F71F04795880F97FB14
:1018C000991F61F09F3F79F08795089512161306CE
:1018D0001406551FF2CF4695F1DF08C016161706FD
:1018E0001806991FF1CF8695710561050894089532
:1018F000E894BB2766277727CB0197F908950BD08B
:10190000C4CFB5DF28F0BADF18F0952309F0A6CFD1
:10191000ABCF1124EECFCADFA0F3959FD1F3950F83
:1019200050E0551F629FF001729FBB27F00DB11D63
:10193000639FAA27F00DB11DAA1F649F6627B00DF3
:10194000A11D661F829F2227B00DA11D621F739FDC
:10195000B00DA11D621F839FA00D611D221F749FEA
:101960003327A00D611D231F849F600D211D822F31
:10197000762F6A2F11249F5750408AF0E1F0882378
:101980004AF0EE0FFF1FBB1F661F771F881F915085
:101990005040A9F79E3F510570F060CFAACF5F3F3E
:1019A000ECF3983EDCF3869577956795B795F795B8
:1019B000E7959F5FC1F7FE2B880F911D9695879540
:1019C00097F9089597FB072E16F4009407D077FD3A
:1019D00009D00E94180D07FC05D03EF49095819522
:1019E0009F4F0895709561957F4F0895A1E21A2E3B
:1019F000AA1BBB1BFD010DC0AA1FBB1FEE1FFF1FB3
:101A0000A217B307E407F50720F0A21BB30BE40B02
:101A1000F50B661F771F881F991F1A9469F7609549
:101A20007095809590959B01AC01BD01CF01089503
:101A3000AA1BBB1B51E107C0AA1FBB1FA617B707F4
:101A400010F0A61BB70B881F991F5A95A9F7809510
:101A50009095BC01CD010895EE0FFF1F0590F49104
:101A6000E02D0994CF93DF938230910510F482E04A
:101A700090E0E091B002F091B10220E030E0A0E00F
:101A8000B0E0309739F14081518148175907B8F0DB
:101A90004817590771F482819381109729F01396A2
:101AA0009C938E9312972CC09093B1028093B002B6
:101AB00027C02115310531F04217530718F0A9014D
:101AC000DB0101C0EF019A01BD01DF010280F3815A
:101AD000E02DD7CF21153105F9F0281B390B243023
:101AE000310580F48A819B816115710521F0FB012C
:101AF0009383828304C09093B1028093B002FE016D
:101B0000329644C0FE01E20FF31F8193919322505D
:101B10003109398328833AC02091AE023091AF0257
:101B2000232B41F420910201309103013093AF0245
:101B30002093AE0220910001309101012115310561
:101B400041F42DB73EB74091040150910501241B8B
:101B5000350BE091AE02F091AF02E217F307A0F46B
:101B60002E1B3F0B2817390778F0AC014E5F5F4FF3
:101B70002417350748F04E0F5F1F5093AF02409374
:101B8000AE028193919302C0E0E0F0E0CF01DF91DB
:101B9000CF910895CF93DF93009709F487C0FC019C
:101BA000329713821282C091B002D091B102209775
:101BB00081F420813181280F391F8091AE029091EC
:101BC000AF028217930779F5F093AF02E093AE026C
:101BD0006DC0DE0120E030E0AE17BF0750F4129672
:101BE0004D915C9113979D014115510509F1DA0161
:101BF000F3CFB383A28340815181840F951F8A174D
:101C00009B0771F48D919C911197840F951F0296FB
:101C10009183808312968D919C91139793838283F5
:101C20002115310529F4F093B102E093B0023EC0D2
:101C3000D9011396FC93EE9312974D915D91A40FE9
:101C4000B51FEA17FB0779F480819181840F951FF6
:101C50000296D90111969C938E938281938113965B
:101C60009C938E931297E0E0F0E08A819B8100972D
:101C700019F0FE01EC01F9CFCE01029628813981DD
:101C8000820F931F2091AE023091AF0228173907BF
:101C900069F4309729F41092B1021092B00202C098
:101CA00013821282D093AF02C093AE02DF91CF9124
:101CB0000895A0E0B0E0EFE5FEE00C94370FEC01F2
:101CC000CB01209719F40E94320DB8C0FE01E60F37
:101CD000F71F9E0122503109E217F30708F4ACC048
:101CE000D9010D911C91119706171707B8F005300F
:101CF000110508F49FC0A801445051094617570721
:101D000008F498C002501109061B170B0193119398
:101D10006D937C93CF010E94CA0D8CC05B01A01A09
:101D2000B10A4E01800E911EA091B002B091B10295
:101D3000612C712C60E070E0109709F449C0A8157F
:101D4000B905C9F5ED90FC901197670142E0C40E0A
:101D5000D11CCA14DB0478F147018A189B0864017E
:101D600042E0C40ED11C1296BC9012971396AC910F
:101D7000B5E0CB16D10440F0B282A3839182808279
:101D8000D9018D939C9309C00E5F1F4F0E0D1F1D2F
:101D9000F90111830083EB2DFA2F6115710531F0E4
:101DA000DB011396FC93EE93129744C0F093B102BB
:101DB000E093B0023FC06D917C9111976616770653
:101DC00008F43B01BD0112960D90BC91A02DB4CF3B
:101DD0006091AE027091AF0268157905E9F468165A
:101DE0007906D0F44091000150910101411551054F
:101DF00041F44DB75EB76091040170910501461B37
:101E0000570BE417F507C0F4F093AF02E093AE026E
:101E1000F901918380830EC00E94320D7C010097EE
:101E200059F0A801BE010E94230FCE010E94CA0DE5
:101E3000C70104C0CE0102C080E090E0CDB7DEB79C
:101E4000EEE00C94530FFB01DC0102C001900D92F7
:101E500041505040D8F70895FB01DC0101900D92EC
:101E60000020E1F708952F923F924F925F926F9278
:101E70007F928F929F92AF92BF92CF92DF92EF921A
:101E8000FF920F931F93CF93DF93CDB7DEB7CA1B9B
:101E9000DB0B0FB6F894DEBF0FBECDBF09942A88C6
:101EA000398848885F846E847D848C849B84AA846E
:101EB000B984C884DF80EE80FD800C811B81AA81FB
:101EC000B981CE0FD11D0FB6F894DEBF0FBECDBFC6
:101ED000ED01089510E0CEEBD0E004C0FE010E94B9
:0E1EE0002E0D2296C03CD107C9F7F894FFCF13
:101EEE000000B20280002C010000FF626F72676E6C
:101EFE0069780054657374206B6570742072756E0A
:101F0E006E696E6720666F722000524543494556D2
:101F1E0045443A200005181A0C02120E1004170D33
:101F2E001407060F161D0A080309110B191B1C2E88
:101F3E00553F4C53454B364231000100000000B076
:101F4E0001B101B201B30100000000B401B901B248
:101F5E0001B3011F1C1F1E1F1E1F1F1E1F1E1F0051
:101F6E000000003307AF08B506CE06C00611070DF8
:101F7E000A006E616E00696E66006F7666002E0056
:00000001FF
