:100000000C945F000C9487000C9487000C9487007C
:100010000C9487000C9487000C9487000C944A047D
:100020000C9487000C9487000C9487000C94870034
:100030000C9487000C9487000C9487000C94870024
:100040000C94DC020C9487000C9487000C948700BD
:100050000C9487000C9487000C9487000C94870004
:100060000C9487000C948700000000080002010037
:100070000003040700000000000000000102040863
:100080001020408001020408102001020408102002
:10009000040404040404040402020202020203032E
:1000A0000303030300000000250028002B000000CC
:1000B0000000240027002A000200BD00C700112410
:1000C0001FBECFEFD8E0DEBFCDBF11E0A0E0B1E0B2
:1000D000E6E2F2E102C005900D92AE34B107D9F725
:1000E00021E0AEE4B1E001C01D92A939B207E1F709
:1000F00010E0CCEBD0E004C02297FE010E94CA06BB
:10010000CA3BD107C9F70E9406040C9406090C9457
:100110000000CF93DF9300D000D000D0CDB7DEB782
:100120008EE491E00E94900167E071E0CE010196BB
:100130000E941405BE016F5F7F4F8EE491E00E9424
:100140000102CE0101960E94A6048EE491E00E9475
:100150001A0226960FB6F894DEBF0FBECDBFDF9110
:10016000CF9108958EE491E00E944A02811104C06B
:100170008EE491E00C941A02089520E030E040E40F
:1001800051E46DE070E08EE491E00C94D00289E3DC
:1001900091E090934F0180934E0186E591E00C949D
:1001A000A604089508950895089561E0FC018281F0
:1001B0000C94CF0360E0FC0182810C94CF030F9379
:1001C0001F93CF93DF93DC0128E030E000E810E0DC
:1001D00080E090E051E0E02FE42309F450E01123A7
:1001E000E1F0FC01EE0FFF1FEE0FFF1FE60FF71F00
:1001F000552329F01696CD91DC91179704C01496DB
:10020000CD91DC911597D183C0831496CD91DC916B
:100210001597D383C2830196512F0695215031093A
:1002200011F0152FD7CFDF91CF911F910F91089526
:10023000CF93DF93EC018FE9860F8A3140F4E62FEC
:10024000FF27E7FDF095E255FF4F408143C080ED69
:10025000860F8A3028F0E9E2F1E080E090E02EC0DD
:10026000E62FFF27E7FDF0959F0120533109A1E01C
:10027000263031051CF0A0E0255031096C817D81CC
:10028000FE0180E090E0B0E041E050E0821793078B
:1002900014F040E050E04A175B0719F44C815D818F
:1002A00002C04E815F8157874687718B608B0196B4
:1002B00034968530910541F719C00196208122239B
:1002C00081F032962613F9CFFC01EE0FFF1FE75D98
:1002D000FE4F4181BE01625F7F4FCE010E94DF0071
:1002E00005C021E030E081E090E002C020E030E095
:1002F000FC01EE0FFF1FDF011696AA0FBB1FAC0F0C
:10030000BD1F8E819F818D939C933796EE0FFF1FAB
:10031000EC0FFD1F11821082C901DF91CF9108956A
:1003200061E0FC0182810C949603CF92DF92EF9200
:10033000FF92CF93DF93EC016A017B0120E030E074
:1003400040E85FE3C701B6010E94530587FD15C071
:1003500020E030E048E452E4C701B6010E9465069F
:100360009B01AC0160E070E68AE697E40E945705C5
:100370000E94BF05362F272F02C030EB24E0832FC9
:10038000922F1816190614F081E090E09D838C835B
:100390009C01220F331F280F391F3F832E83DF91CB
:1003A000CF91FF90EF90DF90CF9008950F931F9320
:1003B000CF93DF9300D000D0CDB7DEB78C0189E3B7
:1003C00091E0F80191838083738362836EE071E032
:1003D000C801089629833A834B835C830E941405E5
:1003E00029813A814B815C81BA01A901C8010F9032
:1003F0000F900F900F90DF91CF911F910F910C9460
:100400009501CF93DF93EC0108960E942A058C8515
:100410009D859FA78EA788A980FD09C0E881F981E5
:100420000280F381E02DCE01DF91CF910994DF911D
:10043000CF910895CF93DF93EC011FA61EA68C8564
:100440009D85892B21F160E070E0CE0108960E9425
:100450004105FC016081CE010E94180199AB88AB77
:10046000E881F9810480F581E02DCE01099588A904
:1004700080FD07C0E881F9810190F081E02DCE0177
:1004800009950E9426036AAB7BAB8CAB9DABDF91D9
:10049000CF910895CF92DF92EF92FF92CF93DF93A7
:1004A000EC012EA53FA58C859D852817390708F0FE
:1004B0006DC00E9426036B017C018AA99BA9ACA98F
:1004C000BDA9C81AD90AEA0AFB0AE8A9F9A9DF01F5
:1004D0001796AA0FBB1FAC0FBD1F8D919C91AA2729
:1004E00097FDA095BA2FC816D906EA06FB0608F4B0
:1004F0004FC0CF01019699AB88AB3896EE0FFF1F26
:10050000EC0FFD1F80819181892B29F56EA57FA5B8
:100510006F5F7F4F7FA76EA78C859D8568177907D2
:1005200078F0E881F9810280F381E02DCE01099510
:10053000E881F9810680F781E02DCE01099526C07A
:10054000CE0108960E944105FC016081CE010E9407
:10055000180199AB88AB4AA95BA96CA97DA94C0D80
:100560005D1D6E1D7F1D4AAB5BAB6CAB7DAB88A97F
:10057000E881F98180FD04C00190F081E02D03C085
:100580000280F381E02DCE01099502C080E001C018
:1005900081E0DF91CF91FF90EF90DF90CF900895B1
:1005A000CF93DF93EC010E94D60185E491E099831B
:1005B0008883DF91CF9108951F920F920FB60F920B
:1005C00011242F933F938F939F93AF93BF93809169
:1005D000850190918601A0918701B09188013091A9
:1005E000840123E0230F2D3720F40196A11DB11DB6
:1005F00005C026E8230F0296A11DB11D209384019A
:100600008093850190938601A0938701B093880120
:100610008091890190918A01A0918B01B0918C0108
:100620000196A11DB11D8093890190938A01A09329
:100630008B01B0938C01BF91AF919F918F913F91AE
:100640002F910F900FBE0F901F9018952FB7F89411
:100650006091850170918601809187019091880158
:100660002FBF0895789484B5826084BD84B581607D
:1006700084BD85B5826085BD85B5816085BDEEE6AA
:10068000F0E0808181608083E1E8F0E01082808189
:1006900082608083808181608083E0E8F0E08081F7
:1006A00081608083E1EBF0E0808184608083E0EB17
:1006B000F0E0808181608083EAE7F0E080818460FF
:1006C000808380818260808380818160808380815B
:1006D000806880831092C1000895833081F028F4EF
:1006E000813099F08230A1F008958730A9F08830E8
:1006F000B9F08430D1F4809180008F7D03C0809167
:1007000080008F7780938000089584B58F7702C032
:1007100084B58F7D84BD08958091B0008F7703C02C
:100720008091B0008F7D8093B0000895CF93DF93C8
:1007300090E0FC01E458FF4F2491FC01E057FF4F8B
:100740008491882349F190E0880F991FFC01E255BC
:10075000FF4FA591B4918C559F4FFC01C591D49149
:100760009FB7611108C0F8948C91209582238C93D7
:10077000888182230AC0623051F4F8948C91322F20
:10078000309583238C938881822B888304C0F894CE
:100790008C91822B8C939FBFDF91CF9108950F9303
:1007A0001F93CF93DF931F92CDB7DEB7282F30E092
:1007B000F901E859FF4F8491F901E458FF4F149172
:1007C000F901E057FF4F04910023C9F0882321F07D
:1007D00069830E946D036981E02FF0E0EE0FFF1F37
:1007E000EC55FF4FA591B4919FB7F8948C9161118E
:1007F00003C01095812301C0812B8C939FBF0F9064
:10080000DF91CF911F910F91089508950E943203B7
:100810000E9405040E948900C0E0D0E00E94B2005E
:100820002097E1F30E940000F9CF813039F018F0F1
:10083000823051F0089510926E00089580916F00FB
:100840008D7F80936F000895809170008D7F8093DD
:10085000700081E08093B0008091B100887F846057
:100860008093B1001092B3000895CF93C82F809168
:1008700006018C1307C0E8EBF0E084919FEF9093A2
:10088000060101C08FEF0E94150460E08C2FCF910C
:100890000C94CF031F920F920FB60F9211242F9337
:1008A0003F934F935F936F937F938F939F93AF93F8
:1008B000BF93EF93FF938091900190919101A0914C
:1008C0009201B0919301892B8A2B8B2B51F190913E
:1008D0008D01E0918E01F0918F01808189278083C5
:1008E0008091900190919101A0919201B09193011A
:1008F000181619061A061B06C4F4809190019091EF
:100900009101A0919201B09193010197A109B109C0
:100910008093900190939101A0939201B0939301E1
:1009200004C0809106010E943504FF91EF91BF91B0
:10093000AF919F918F917F916F915F914F913F9177
:100940002F910F900FBE0F901F901895FC01808182
:1009500091810C946607CF93DF93EC018881998194
:10096000009711F00E946607198218821D821C826E
:100970001B821A82DF91CF9108950F931F93CF931B
:10098000DF93EC018B016F5F7F4F888199810E941B
:10099000F507009731F0998388831B830A8381E0F0
:1009A00001C080E0DF91CF911F910F910895CF9307
:1009B000DF93EC0188819981892B29F08A819B81C1
:1009C0008617970760F4CE010E94BD04882341F08A
:1009D0008C819D81892B19F4E881F981108281E055
:1009E000DF91CF910895EF92FF920F931F93CF93D2
:1009F000DF93EC017B018A01BA010E94D7048111C7
:100A000004C0CE010E94AB0407C01D830C83B70154
:100A1000888199810E94C808CE01DF91CF911F91F2
:100A20000F91FF90EF900895FC01118210821382C4
:100A30001282158214826115710559F0FB01019033
:100A40000020E9F7AF0141505109461B570B0C94A8
:100A5000F3040895CF93DF93EC01FB01861797070A
:100A600061F0608171816115710529F044815581C2
:100A70000E94F30402C00E94AB04CE01DF91CF912B
:100A80000895FC01848195816817790720F480819D
:100A90009181009729F41092940184E991E00895DE
:100AA000860F971F08959CD008F481E008950CD01C
:100AB000D2C0CAD040F0C1D030F021F45F3F19F06D
:100AC000B3C05111FCC0B6C0D7D098F39923C9F375
:100AD0005523B1F3951B550BBB27AA276217730744
:100AE000840738F09F5F5F4F220F331F441FAA1FF8
:100AF000A9F333D00E2E3AF0E0E830D091505040B8
:100B0000E695001CCAF729D0FE2F27D0660F771F65
:100B1000881FBB1F261737074807AB07B0E809F047
:100B2000BB0B802DBF01FF2793585F4F2AF09E3FDC
:100B3000510568F079C0C3C05F3FECF3983EDCF329
:100B4000869577956795B795F7959F5FC9F7880F55
:100B5000911D9695879597F90895E1E0660F771FA7
:100B6000881FBB1F621773078407BA0720F0621B38
:100B7000730B840BBA0BEE1F88F7E095089504D031
:100B80006894B1119CC008957FD088F09F5790F071
:100B9000B92F9927B751A0F0D1F0660F771F881FA2
:100BA000991F1AF0BA95C9F712C0B13081F086D0FA
:100BB000B1E0089583C0672F782F8827B85F39F098
:100BC000B93FCCF3869577956795B395D9F73EF401
:100BD00090958095709561957F4F8F4F9F4F0895A9
:100BE000990F0008550FAA0BE0E8FEEF161617063E
:100BF000E807F907C0F012161306E407F50798F0A6
:100C0000621B730B840B950B39F40A2661F0232BBE
:100C1000242B252B21F408950A2609F4A140A6953A
:100C20008FEF811D811D089597F99F6780E870E01F
:100C300060E008959FEF80EC089500240A94161652
:100C4000170618060906089500240A9412161306BA
:100C5000140605060895092E0394000C11F4882348
:100C600052F0BB0F40F4BF2B11F460FF04C06F5F64
:100C70007F4F8F4F9F4F089557FD9058440F551F3A
:100C800059F05F3F71F04795880F97FB991F61F00E
:100C90009F3F79F087950895121613061406551F85
:100CA000F2CF4695F1DF08C0161617061806991FF1
:100CB000F1CF86957105610508940895E894BB27E6
:100CC00066277727CB0197F908950BD0C4CFB5DFFE
:100CD00028F0BADF18F0952309F0A6CFABCF112486
:100CE000EECFCADFA0F3959FD1F3950F50E0551FCB
:100CF000629FF001729FBB27F00DB11D639FAA2771
:100D0000F00DB11DAA1F649F6627B00DA11D661FBF
:100D1000829F2227B00DA11D621F739FB00DA11DE0
:100D2000621F839FA00D611D221F749F3327A00D9A
:100D3000611D231F849F600D211D822F762F6A2F36
:100D400011249F5750408AF0E1F088234AF0EE0FBB
:100D5000FF1FBB1F661F771F881F91505040A9F7C8
:100D60009E3F510570F060CFAACF5F3FECF3983EF5
:100D7000DCF3869577956795B795F795E7959F5F2F
:100D8000C1F7FE2B880F911D9695879597F90895C9
:100D9000EE0FFF1F0590F491E02D0994CF93DF93A0
:100DA0008230910510F482E090E0E0919701F0919B
:100DB000980120E030E0A0E0B0E0309739F14081C8
:100DC000518148175907B8F04817590771F48281C3
:100DD0009381109729F013969C938E9312972CC0B1
:100DE000909398018093970127C02115310531F028
:100DF0004217530718F0A901DB0101C0EF019A0166
:100E0000BD01DF010280F381E02DD7CF211531052F
:100E1000F9F0281B390B2430310580F48A819B813D
:100E20006115710521F0FB019383828304C09093C7
:100E3000980180939701FE01329644C0FE01E20FB3
:100E4000F31F8193919322503109398328833AC04B
:100E50002091950130919601232B41F420910201BC
:100E60003091030130939601209395012091000168
:100E7000309101012115310541F42DB73EB7409164
:100E8000040150910501241B350BE0919501F0916F
:100E90009601E217F307A0F42E1B3F0B2817390722
:100EA00078F0AC014E5F5F4F2417350748F04E0FC6
:100EB0005F1F50939601409395018193919302C0D7
:100EC000E0E0F0E0CF01DF91CF910895CF93DF9381
:100ED000009709F487C0FC01329713821282C091F7
:100EE0009701D0919801209781F420813181280FBA
:100EF000391F80919501909196018217930779F59A
:100F0000F0939601E09395016DC0DE0120E030E0A2
:100F1000AE17BF0750F412964D915C9113979D0147
:100F20004115510509F1DA01F3CFB383A283408162
:100F30005181840F951F8A179B0771F48D919C91A5
:100F40001197840F951F02969183808312968D913D
:100F50009C911397938382832115310529F4F09393
:100F60009801E09397013EC0D9011396FC93EE934C
:100F700012974D915D91A40FB51FEA17FB0779F405
:100F800080819181840F951F0296D90111969C93BF
:100F90008E938281938113969C938E931297E0E0B7
:100FA000F0E08A819B81009719F0FE01EC01F9CFF6
:100FB000CE01029628813981820F931F20919501DD
:100FC000309196012817390769F4309729F4109267
:100FD00098011092970102C013821282D093960159
:100FE000C0939501DF91CF910895A0E0B0E0EBEFC1
:100FF000F7E00C94D308EC01CB01209719F40E9480
:10100000CE06B8C0FE01E60FF71F9E01225031093F
:10101000E217F30708F4ACC0D9010D911C911197A8
:1010200006171707B8F00530110508F49FC0A8018E
:10103000445051094617570708F498C00250110947
:10104000061B170B019311936D937C93CF010E94A4
:1010500066078CC05B01A01AB10A4E01800E911E7A
:10106000A0919701B0919801612C712C60E070E023
:10107000109709F449C0A815B905C9F5ED90FC9081
:101080001197670142E0C40ED11CCA14DB0478F149
:1010900047018A189B08640142E0C40ED11C1296D5
:1010A000BC9012971396AC91B5E0CB16D10440F0EA
:1010B000B282A38391828082D9018D939C9309C0CF
:1010C0000E5F1F4F0E0D1F1DF90111830083EB2DC5
:1010D000FA2F6115710531F0DB011396FC93EE9345
:1010E000129744C0F0939801E09397013FC06D912F
:1010F0007C9111976616770608F43B01BD011296A4
:101100000D90BC91A02DB4CF609195017091960186
:1011100068157905E9F468167906D0F44091000164
:10112000509101014115510541F44DB75EB76091F1
:10113000040170910501461B570BE417F507C0F435
:10114000F0939601E0939501F901918380830EC09D
:101150000E94CE067C01009759F0A801BE010E94B2
:10116000BF08CE010E946607C70104C0CE0102C0BD
:1011700080E090E0CDB7DEB7EEE00C94EF08FB0125
:10118000DC0102C001900D9241505040D8F7089503
:10119000FB01DC0101900D920020E1F708952F92F0
:1011A0003F924F925F926F927F928F929F92AF92F7
:1011B000BF92CF92DF92EF92FF920F931F93CF9344
:1011C000DF93CDB7DEB7CA1BDB0B0FB6F894DEBFDB
:1011D0000FBECDBF09942A88398848885F846E8401
:1011E0007D848C849B84AA84B984C884DF80EE804B
:1011F000FD800C811B81AA81B981CE0FD11D0FB654
:10120000F894DEBF0FBECDBFED01089510E0CCEB2A
:10121000D0E004C0FE010E94CA062296CE3BD10750
:06122000C9F7F894FFCFAE
:10122600000099018000FF626F72676E69780005A1
:10123600181A0C02120E1004170D1407060F161DAD
:101246000A080309110B191B1C2E553F4C53454B1D
:10125600364231000100000000D100D200D300D494
:0E1266000000000000D500DA00D300D4000024
:00000001FF
